:10000000BCC1DAC7DFC1DEC1DDC1DCC1DBC1DAC121
:10001000D9C1D8C1D7C1B7C6D5C1D4C1D3C1D2C146
:10002000D1C10A417661696C61626C6520636F6D54
:100030006D616E64733A0A20203C6E6E3E2069202A
:10004000202020202D20736574206E6F6465204968
:100050004420287374616E64617264206E6F6465FD
:10006000206964732061726520312E2E3330290A95
:1000700020203C6E3E20622020202020202D207356
:100080006574204D487A2062616E64202834203DDA
:10009000203433332C2038203D203836382C20397A
:1000A000203D20393135290A20203C6E6E6E3E20DD
:1000B00067202020202D20736574206E6574776F73
:1000C000726B2067726F7570202852464D31322056
:1000D0006F6E6C7920616C6C6F7773203231322CCB
:1000E0002030203D20616E79290A20203C6E3E2080
:1000F000632020202020202D2073657420636F6CE6
:100100006C656374206D6F64652028616476616E30
:100110006365642C206E6F726D616C6C7920302980
:100120000A202074202020202020202020202D2084
:1001300062726F616463617374206D61782D73699D
:100140007A652074657374207061636B65742C200C
:10015000726571756573742061636B0A20202E2EA1
:100160002E2C3C6E6E3E2061202D2073656E642027
:1001700064617461207061636B657420746F206EBC
:100180006F6465203C6E6E3E2C20726571756573E0
:10019000742061636B0A20202E2E2E2C3C6E6E3E46
:1001A0002073202D2073656E64206461746120705B
:1001B00061636B657420746F206E6F6465203C6EA4
:1001C0006E3E2C206E6F2061636B0A20203C6E3ED9
:1001D000206C2020202020202D207475726E20613C
:1001E00063746976697479204C4544206F6E2050A1
:1001F0004231206F6E206F72206F66660A20203CAD
:100200006E3E20712020202020202D207365742038
:100210007175696574206D6F6465202831203D20FB
:10022000646F6E2774207265706F727420626164EF
:10023000207061636B657473290A20203C6E3E2038
:10024000782020202020202D207365742072657076
:100250006F7274696E6720666F726D6174202830EA
:10026000203D20646563696D616C2C2031203D2048
:10027000686578290A2020313233207A2020202016
:1002800020202D20746F74616C20706F7765722050
:10029000646F776E2C206E656564732061207265D3
:1002A00073657420746F207374617274207570208C
:1002B000616761696E0A52656D6F746520636F6E68
:1002C00074726F6C20636F6D6D616E64733A0A2097
:1002D000203C686368693E2C3C68636C6F3E2C3C34
:1002E000616464723E2C3C636D643E206620202075
:1002F00020202D204653323020636F6D6D616E6477
:100300002028383638204D487A290A20203C61645C
:1003100064723E2C3C6465763E2C3C6F6E3E206BD6
:1003200020202020202020202020202020202D20C0
:100330004B414B5520636F6D6D616E6420283433E3
:1003400033204D487A290A00003A37003B380039FB
:1003500036003240020202010101010101010101E6
:10036000020480402010080402010000010203047E
:100370000000000000008109BB0911241FBECFE569
:10038000D2E0DEBFCDBF10E0A0E6B0E0E8E0F4E1EF
:1003900002C005900D92AE3EB107D9F711E0AEEE66
:1003A000B0E001C01D92AB3BB107E1F713E0CAE733
:1003B000D3E003C02297FE0121D8C637D107D1F779
:1003C000E1D720C81DCEFB01DC0102C001900D92D7
:1003D00041505040D8F70895FB01DC010D900020FA
:1003E000E9F7119701900D920020E1F70895FB01C4
:1003F000DC0101900D920020E1F708951F93182F62
:100400008091EF008823F9F0812F90E024E095950A
:1004100087952A95E1F78F70682F605D6A330CF03D
:10042000695F83EB91E040E050E00ED7812F8F7041
:10043000682F605D6A330CF0695F83EB91E040E008
:1004400050E002D707C083EB91E0612F70E04AE0F3
:1004500050E0E8D61F9108950F931F93CF93DF9339
:10046000B5D2882309F475C01091590180915501C6
:1004700090915601892B31F483EB91E060E670E0B6
:10048000FFD50DC08091EE00882309F08FC083EB6B
:1004900091E063E670E0F4D5153108F014E10091C5
:1004A000EF00002331F083EB91E068E540E050E09D
:1004B000CBD68091F100882341F483EB91E066E68E
:1004C00070E0DED58091570199DF83EB91E060E227
:1004D00040E050E0B9D68091580190DFC0E0D0E014
:1004E0000EC0002331F483EB91E060E240E050E085
:1004F000ABD6FE01E65AFE4F808180DF2196C11700
:1005000080F383EB91E0B3D6809155019091560131
:10051000892BF9F48091580185FF1BC08091580107
:1005200087FD17C08091F00085FD13C083EB91E03B
:1005300069E670E0B3D68091580186FF02C080E87A
:1005400004C0809158018F71806C60E070E040E0E1
:1005500022D380911001882349F1C6D2882331F13A
:1005600083EB91E061E770E08BD51091110183EB93
:1005700091E0612F70E04AE050E054D683EB91E0C7
:1005800066E770E08BD680911001813611F080E033
:1005900001C080E290911201992311F09064892B9F
:1005A00063E171E0412FF7D210921001DF91CF91FA
:1005B0001F910F9108950F931F93CF93DF93EC0139
:1005C0008B016A30710530F0CB016AE070E0DED655
:1005D000CE01F1DFDE010D900020E9F71197AC1B91
:1005E000CA0FD11DC8016AE070E0D0D6805D888353
:1005F000DF91CF911F910F9108951F93CF93DF93B8
:10060000C2EFD0E08CE1FE0111928A95E9F7CE01AC
:1006100069E770E0ECDE1091F0001F71FE010190BF
:100620000020E9F7E35FF040F0E0EC0FFD1F105C05
:1006300010831054CE016BE770E0CEDECE01612F47
:1006400070E0B9DF8091F00085FF0BC0FE010190E2
:100650000020E9F7E35FF040F0E0EC0FFD1F8AE2D5
:10066000808382EF90E06EE770E0B6DE6091F1008B
:1006700082EF90E070E09FDF82EF90E061E870E051
:10068000ABDEE091F000F0E046E0F595E7954A95A5
:10069000E1F7EE0FFF1FEC53FF4F6081718182EF96
:1006A00090E089DF82EF90E065E870E095DE8FEF03
:1006B0009FEF90930F0180930E01E0EFF0E0219106
:1006C00080910E0190910F018227282F22952827D3
:1006D000022E269526952025022E26952025277068
:1006E000082E892F269507942795902D822706940A
:1006F00027959025822790930F0180930E0181E02A
:10070000EE30F807E1F680E290E0FC01E053FF4FA5
:10071000E081E199FECF1CBA9FBB8EBBEDBB0FB64B
:10072000F894E29AE19A0FBE01968034910569F738
:1007300081E0BFD2882329F483EB91E06BE870E07D
:10074000ADD5DF91CF911F9108951F93CF93DF9384
:1007500089EB91E09093B6018093B501E091B901E6
:10076000F091BA010190F081E02D099589E062E0F5
:1007700041E238D283EB91E06EE970E081D481E010
:1007800098D28823A9F0E199FECF80E290E09FBB48
:100790008EBBE09A8DB38093F000E199FECF81E2A9
:1007A00090E09FBB8EBBE09A8DB38093F10007C0B1
:1007B00081E48093F00084ED8093F1001EDFC2E2BB
:1007C000D0E0FE0121961491112379F01A3031F412
:1007D00083EB91E06DE040E050E036D583EB91E0B3
:1007E000612F40E050E030D5ECCF83EB91E06DEA33
:1007F00070E054D581E05DD2DF91CF911F910895D3
:10080000C1989FB990E031E123E13DB92DB99F5FD7
:100810009830D9F73FB18FB980E021E193E12DB94C
:100820009DB98F5F8830D9F72FB1932F80E0C19A9F
:1008300030E0282B392BC90108952BB72F7B2BBF14
:10084000DFDF2BB720642BBF089580E090E0D8DF76
:100850008091A501853009F052C080E090EBD0DF97
:10086000282F8091A701882371F49091A6019923E4
:1008700051F08091A701E82FF0E0E95AFE4F9083F4
:100880008F5F8093A7018091A701E82FF0E0E95ADC
:10089000FE4F20838F5F8093A70180915501909137
:1008A00056018227282F22952827022E2695269545
:1008B0002025022E269520252770082E892F269583
:1008C00007942795902D82270694279590258227B7
:1008D0009093560180935501809159012091A70171
:1008E00090E0049630E0821793072CF08091A701E6
:1008F000873408F46AC08DE092E882DF0895809121
:10090000A50187FF2EC0E09159018091A5018F5F5D
:100910008093A5018150ED5FE80FF0E0E95AFE4FAA
:10092000E08180915501909156018E27282F2295C4
:100930002827022E269526952025022E269520254D
:100940002770082E892F269507942795902D8227AA
:100950000694279590258227909356018093550100
:100960002FC08091A5018F5F8093A50181508330B6
:1009700019F184302CF4882399F0813001F516C0E8
:10098000893019F08A30D9F402C0EDE219C0E09143
:10099000A601909159018EEF891B8093A50110C08B
:1009A0008091550190915601E82F0AC08091550120
:1009B00090915601E92F04C08DE092E821DFEAEA28
:1009C0008E2F90E0805098441BDF08958091A50100
:1009D000853009F042C0809159012091A70190E033
:1009E000049630E08217930724F08091A7018734A2
:1009F000A0F184E08093A50180915901833430F007
:100A000081E090E0909356018093550180915801C8
:100A100086FF12C08091A401282F30E0C9018F7198
:100A200090704F9749F08091580190E0822793276A
:100A30008F719070892B89F48091550190915601A6
:100A4000892B09F043C0E091A201F091A3013097F6
:100A500009F43CC080E0099545C08091A50184302F
:100A600011F080E00895109259018091590180930E
:100A7000A7018FEF9FEF909356018093550120912E
:100A8000A6012223D9F08227282F22952827022E7B
:100A9000269526952025022E269520252770082E9E
:100AA000892F269507942795902D822706942795C0
:100AB00090258227909356018093550185E080937D
:100AC000A5018DED92E89CDE80E008958FEF9FEF09
:100AD000AFEFBFEF80939E0190939F01A093A00181
:100AE000B093A10181E008958091A501853089F43A
:100AF0008091A701882369F480E090E09EDE90FD5C
:100B000008C08DE092E899DE84E08093A50181E041
:100B1000089580E00895982F86FD05C0907E80910D
:100B2000A4018F71980F90935801E091A201F09168
:100B3000A301309711F081E009958FEF9FEF90931B
:100B40005601809355018091550190915601209155
:100B5000A6018227282F22952827022E2695269542
:100B60002025022E269520252770082E892F2695D0
:100B700007942795902D8227069427959025822704
:100B8000909356018093550186E08093A5018DE3F3
:100B900092E836DE08951F93182F409359012AE5F5
:100BA00031E0C90150E00FDC812FB5DF1F910895BE
:100BB000C19AB99A81E061E075D181E061E04ED1DE
:100BC00085E061E04BD184E060E048D186E061E0FF
:100BD00045D180E18DB982E060E040D182E061E002
:100BE00061D108951F93162F8093A4014093A6010D
:100BF000DFDF80E090E004DE85E092E801DE80E067
:100C000098EB02C080E090E0FBDD82E085D1892B8B
:100C1000C9F3812F90E064E0880F991F6A95E1F78E
:100C2000876C9068EDDD80E496EAEADD86E096EC7C
:100C3000E7DD82EA94E9E4DD8CEA92ECE1DD1091F3
:100C4000A601112339F083E89AECDADD812F90E0D8
:100C50009E6C05C08BE89AECD3DD8DE29EECD0DD76
:100C600083E894ECCDDD80E598E9CADD87E79CEC6C
:100C7000C7DD80E090EEC4DD80E098ECC1DD89E462
:100C800090ECBEDD84E08093A5018091A40190E00A
:100C90008F719070892B39F080E065E274E040E05C
:100CA00050E06FD102C080E07DD18091A4011F91FE
:100CB0000895EF92FF920F931F93CF93DF93E82E47
:100CC0004FEF5FEF20E230E0E199FECF3FBB2EBB5C
:100CD000E09A8DB34827842F82958427082E869525
:100CE00086958025082E869580258770042E452FB1
:100CF000869507948795502D48270694879550250B
:100D000048272F5F3F4F2034310509F0DDCF452BB9
:100D100011F080E031C000E0FF2410E0C0E2D0E03C
:100D2000E199FECFDFBBCEBBE09A6DB3112311F486
:100D3000062F0DC0113011F4F62E09C0662359F0AC
:100D4000EE2029F083EB91E040E050E07DD21F5F80
:100D500021961E3129F7EE2019F083EB91E087D21E
:100D6000602F70E0E6E075956795EA95E1F7802FD2
:100D70004F2D38DF802F8F71DF91CF911F910F9111
:100D8000FF90EF9008951F920F920FB60F921124CB
:100D90002F933F938F939F93AF93BF938091AC0119
:100DA0009091AD01A091AE01B091AF013091B00131
:100DB000232F2A5F2D3728F02D570396A11DB11D33
:100DC00003C00296A11DB11D2093B0018093AC0118
:100DD0009093AD01A093AE01B093AF018091A801B3
:100DE0009091A901A091AA01B091AB010196A11D1A
:100DF000B11D8093A8019093A901A093AA01B0937B
:100E0000AB01BF91AF919F918F913F912F910F9027
:100E10000FBE0F901F901895789480B7836080BFA5
:100E200083B7877F83BF83B7887F836083BF89B79A
:100E3000816089BF8EB5887F8EBD8FB58C7F8160C4
:100E40008FBD8EB5877E8EBD8EB5887F83608EBD4B
:100E500086B1887F866086B9379A0895482F50E01A
:100E6000CA01815A9C4FFC0124914C5A5C4FFA01F3
:100E700084918823B1F0E82FF0E0E85BFC4FE49127
:100E8000F0E0662341F49FB7F89480812095822397
:100E900080839FBF08959FB7F8948081822B8083C1
:100EA0009FBF0895282F482F50E0CA01815A9C4FB8
:100EB000FC0134914C5A5C4FFA019491992359F1F9
:100EC000223019F480B78F7304C0233021F480B727
:100ED0008F7C80BF0AC0243019F48FB58F7304C093
:100EE000253019F48FB58F7C8FBDE92FF0E0E55BDD
:100EF000FC4FE491F0E0662341F49FB7F8948081C1
:100F00003095832380839FBF08959FB7F894808195
:100F1000832B80839FBF0895282F482F50E0CA015C
:100F2000815A9C4FFC0194914C5A5C4FFA013491C8
:100F3000332319F420E030E022C0223019F480B7C6
:100F40008F7304C0233021F480B78F7C80BF0AC028
:100F5000243019F48FB58F7304C0253019F48FB580
:100F60008F7C8FBDE32FF0E0E25BFC4FE491F0E07B
:100F7000808120E030E0892311F021E030E0C901D8
:100F80000895882371F48FB7F8947093B201609339
:100F9000B1018FBF85B78C7F842B85BF8BB78064F1
:100FA0008BBF0895882339F48BB78F7B8BBF10924A
:100FB000B2011092B10108951F920F920FB60F92D5
:100FC00011242F933F934F935F936F937F938F934E
:100FD0009F93AF93BF93EF93FF938091B101909153
:100FE000B201892B29F0E091B101F091B20109958C
:100FF000FF91EF91BF91AF919F918F917F916F91F1
:101000005F914F913F912F910F900FBE0F901F90C6
:1010100018950F931F93CF93DF938C01EB0109C0B9
:101020002196D801ED91FC910190F081E02DC8014D
:10103000099568816623A1F7DF91CF911F910F91E8
:101040000895EF92FF920F931F93CF93DF938C013C
:101050007B01EA010CC0D7016D917D01D801ED91B2
:10106000FC910190F081E02DC8010995219720970E
:1010700091F7DF91CF911F910F91FF90EF9008951D
:10108000DC01ED91FC910280F381E02D099508953A
:101090002F923F924F925F926F927F928F929F9288
:1010A000AF92BF92CF92DF92EF92FF920F931F9376
:1010B000DF93CF93CDB7DEB7A0970FB6F894DEBF1E
:1010C0000FBECDBF1C016A017B01411551056105B1
:1010D000710541F440E350E060E070E020E030E072
:1010E0006DD053C0882499245401422E552466247F
:1010F000772401E010E00C0F1D1F080D191DC7011A
:10110000B601A301920156D1F80160830894811CB5
:10111000911CA11CB11CC701B601A30192014AD1C7
:10112000C901DA016C017D01C114D104E104F104AB
:1011300001F781E0E82EF12CEC0EFD1EE80CF91C05
:101140003E010894611C711CD501C4010197A109DD
:10115000B1096C01C818D90815C0F601EE0DFF1DC4
:1011600040814A3010F4405D01C0495C552747FD7D
:101170005095652F752FC10120E030E01FD00894F5
:10118000E108F1086E147F0441F7A0960FB6F894B9
:10119000DEBF0FBECDBFCF91DF911F910F91FF90AA
:1011A000EF90DF90CF90BF90AF909F908F907F9007
:1011B0006F905F904F903F902F900895EF92FF9225
:1011C0000F931F93CF93DF93EC017A018B012115CD
:1011D000310541F4E881F9810190F081E02D642F1F
:1011E000099519C02A303105A9F477FF0FC04DE2E7
:1011F00050E060E070E020E030E0E0DF1095009526
:10120000F094E094E11CF11C011D111DCE01B80108
:10121000A7012AE03DDFDF91CF911F910F91FF9051
:10122000EF900895EF92FF920F931F937B019A0125
:101230000027F7FC0095102FB801A701BFDF1F9111
:101240000F91FF90EF900895EF92FF920F931F93ED
:10125000E62E9A01FF24E7FCF0940F2D1F2DB80114
:10126000A701ACDF1F910F91FF90EF9008950F93AE
:101270001F938C014DE050E060E070E020E030E032
:101280009DDFC8014AE050E060E070E020E030E01F
:1012900095DF82E090E01F910F9108950F931F93C7
:1012A0008C01EEDEC801E3DF1F910F9108950895D0
:1012B000089580E090E008958FEF9FEF08958FEFFD
:1012C0009FEF08950895FC01A281B381ED91FC91F7
:1012D00011970280F381E02DCD01099581E090E026
:1012E000089527EB31E0FC0133832283C901DFDF5E
:1012F0000895FC0188ED90E091838083CF01F1DFB8
:10130000089580ED90E09093B8018093B70183EB4E
:1013100091E0EFDF0895B89AC09A0895862F880F5C
:101320008E7162956F70606122E095E059E0F894EB
:1013300007C00000000000000000000000000000E6
:10134000879510F0C09802C0C09A0000579510F41D
:10135000000000004EE34A95F1F700000000000095
:101360009A9539F700002A9521F095E0862F54E0F0
:10137000E7CF789408958AEE90E09093BA01809335
:10138000B901089549DDE1D967D8FECFAA1BBB1B7F
:1013900051E107C0AA1FBB1FA617B70710F0A61B75
:1013A000B70B881F991F5A95A9F780959095BC0196
:1013B000CD010895A1E21A2EAA1BBB1BFD010DC091
:1013C000AA1FBB1FEE1FFF1FA217B307E407F507F5
:1013D00020F0A21BB30BE40BF50B661F771F881FD1
:1013E000991F1A9469F760957095809590959B0167
:1013F000AC01BD01CF010895EE0FFF1F0590F491E0
:08140000E02D0994F894FFCFE0
:101408004F4B00203F00204700202D3E2061636B9A
:1014180000202D3E20002062002000206900206767
:101428000020402000204D487A2000636F6E6669D6
:10143800672073617665206661696C6564000A5B84
:101448005246313264656D6F2E31305D00437572DE
:1014580072656E7420636F6E666967757261746910
:101468006F6E3A003B01B101640393030000000072
:10147800570958090000000063090908210859099B
:0E1488005F095C096209000000008B098E09F3
:00000001FF
