:10000000AAC0CBC8CDC0CCC0DAC0CAC0C9C0C8C0A5
:10001000C7C0C6C0C5C035C7C3C0C2C0C1C0C0C04C
:10002000BFC0005EBCE2613FDD83C29C7E20A3FDB9
:100030001F419DC3217FFCA2401E5F01E3BD3E60C6
:1000400082DC237D9FC1421CFEA0E1BF5D0380DEF8
:100050003C62BEE0025CDF81633D7C22C09E1D43AA
:10006000A1FF4618FAA427799BC584DA3866E5BB58
:100070005907DB856739BAE406581947A5FB782686
:10008000C49A653BD987045AB8E6A7F91B45C698B8
:100090007A24F8A6441A99C7257B3A6486D85B056A
:1000A000E7B98CD2306EEDB3510F4E10F2AC2F7118
:1000B00093CD114FADF3702ECC92D38D6F31B2EC46
:1000C0000E50AFF1134DCE90722C6D33D18F0C5278
:1000D000B0EE326C8ED0530DEFB1F0AE4C1291CF2A
:1000E0002D73CA947628ABF517490856B4EA6937D8
:1000F000D58B5709EBB536688AD495CB2977F4AA06
:100100004816E9B7550B88D6346A2B7597C94A1437
:10011000F6A8742AC896154BA9F7B6E80A54D789E9
:100120006B35003A37003B38003936003240020266
:1001300002010101010101010101020480402010BE
:100140000804020100000102030400000000000096
:10015000DA006C0AA80A11241FBECFE5D2E0DEBF88
:10016000CDBF10E0A0E6B0E0EAEBF5E102C00590FB
:100170000D92A43CB107D9F711E0A4ECB0E001C0A6
:100180001D92A435B107E1F711E0C6E5D1E003C047
:100190002297FE010CDAC035D107D1F7E0D90BCA9E
:1001A0002FCFFB01DC0102C001900D924150504065
:1001B000D8F7089584EC90E064E01DD308951F9271
:1001C0000F920FB60F9211242F933F934F935F938B
:1001D0006F937F938F939F93AF93BF93EF93FF930F
:1001E0004AD6FF91EF91BF91AF919F918F917F91EF
:1001F0006F915F914F913F912F910F900FBE0F9094
:100200001F9018951F93182F89E061E018D760E0C0
:10021000112309F461E089E036D71F9108950F9307
:100220001F93CF93DF93182FEB01042FFED38BD4B2
:100230008823A1F081E0E6DF812FBE01402F0CD59D
:1002400081E0D8D462E370E080E090E071D680E095
:10025000D9DF62E370E080E090E06AD6DF91CF9171
:100260001F910F910895EF92FF920F931F93DF93C9
:10027000CF93CDB7DEB72C970FB6F894DEBF0FBE85
:10028000CDBF8C0184EC90E0D8D184EC90E0B80133
:10029000B5D184EC90E064E441E072D168EE73E0A3
:1002A00080E090E045D684EC90E0C7D184EC90E00B
:1002B000B801A4D184EC90E06EEB40E061D18E01F6
:1002C0000F5F1F4F8AE0E82EF12CEC0EFD1E84EC30
:1002D00090E009D1F80181938F01EE15FF05B9F780
:1002E000CE0101962C960FB6F894DEBF0FBECDBF9F
:1002F000CF91DF911F910F91FF90EF9008950F9391
:100300001F93CF93DF938C0184EC90E0B801E2D18E
:10031000882349F48CE491E060E670E0AAD884EC8C
:1003200090E08FD027C08CE491E063E770E099D72C
:10033000C0E0D0E0F801EC0FFD1F8CE491E060819B
:1003400040E150E03AD88CE491E066E770E089D76C
:100350002196C830D10571F7C80167E07FD0F80158
:100360009781891711F481E006C08CE491E068E779
:1003700070E07FD880E0DF91CF911F910F910895B9
:100380001FC083EE90E06FDF9093EC008093EB0052
:10039000A4EDB0E0E3EEF0E088E001900D92815032
:1003A000E1F7E091EB00F091EC0080819181909376
:1003B000DD008093DC0081E064ED70E04FE02FDF32
:1003C00083EE90E09CDF8823E1F608950F931F935E
:1003D000A1D57093D3006093D2008FEF24D4D0DFE7
:1003E00082E008D480E01FD40091D2001091D300A5
:1003F00091D508571C4E061B170BC801E7D465E0C2
:1004000070E080E090E094D51F910F91089582E50F
:1004100091E090934F0180934E01E0915201F09151
:1004200053010190F081E02D099587E062E041E2FF
:100430003AD48CE491E06AE870E01BD880E0E2DE18
:100440000895FC0113861586148687E090E01286D5
:100450003197009711F00197FACF0895DC0180E001
:100460000BC0E82FF0E08D9190E0E827F927EE5DD2
:10047000FF4FE49161508E2F662399F70895DF9224
:10048000EF92FF920F931F93FC01E0800181128194
:10049000F894F80181818E2981838281DE2CD094A9
:1004A0008D21828383E090E09ED5F80181818D21AA
:1004B000818382818E2982838AE090E094D5F8013D
:1004C0000081789485E390E08ED580E010E0FF24F1
:1004D0000E211F21012B09F081E01F910F91FF9048
:1004E000EF90DF900895EF92FF920F931F93CF93B9
:1004F000DF937C0101E010E0C0E0D0E0C701BFDF86
:100500008111102B000F2196C830D105B9F7812F2A
:10051000DF91CF911F910F91FF90EF9008951F935E
:10052000CF93DF93FC011081C181D281912F9095EF
:1005300060FF11C0F8948A8189238A838981812B85
:1005400089838AE090E04FD58A81812B8A837894D1
:1005500087E390E010C0F8948A8189238A83898197
:10056000812B898381E490E03ED58A81812B8A8327
:10057000789485E090E037D5DF91CF911F91089571
:10058000CF92DF92EF92FF920F931F93CF93DF935F
:100590008C01E42EFF24F394C0E0D0E0C62EDD24CD
:1005A00060E08F2D90E08C219D21892B09F061E086
:1005B000C801B5DFFF0C2196C830D10589F7EE20C0
:1005C000A1F4F894D8011196ED91FC9112979181C4
:1005D0008C918095982391831196ED91FC911297BF
:1005E00082819C91892B82837894DF91CF911F9196
:1005F0000F91FF90EF90DF90CF900895EF92FF92D0
:100600000F931F93CF93DF938C017B0165E540E04F
:10061000B7DFC0E0D0E0F701EC0FFD1FC80160813B
:1006200040E0AEDF2196C830D105A9F7DF91CF9128
:100630001F910F91FF90EF900895DF92EF92FF923C
:100640000F931F93CF93DF93FC010081C181D2816F
:10065000F8948981D02ED0948D2189838A81802B32
:100660008A8378941DE7E02EFF24115051F182E037
:1006700090E0B9D4888190E08E219F21892BA9F345
:10068000F8948A818D218A838981802B898378944B
:1006900084EF91E0A8D4F89489818D2189838A819F
:1006A000802B8A8380E590E09ED4888110E090E0E2
:1006B000E822F922EF2809F411E0789484EA91E025
:1006C00092D4812FDF91CF911F910F91FF90EF90E6
:1006D000DF900895AF92BF92DF92EF92FF920F9357
:1006E0001F93CF93DF93EC015B018D85882309F085
:1006F0005CC0CE01A2DF882329F41B861D861C86E0
:1007000090E067C0CE0160EF40E03ADF01E0DD2419
:10071000EE24FF24F394CE01B2DE182FCE01AFDE1B
:10072000113019F48130E1F438C0181709F58B85C0
:10073000081770F460E0FE01EE0DF11D838190E07A
:100740002F2D30E082239323181619064CF003C096
:1007500060E0081729F0093008F04BC00C8749C049
:10076000FE01EE0DF11D83818F29838361E009C0B5
:10077000612FFE01EE0DF11D9F2D90958381892340
:100780008383CE01CCDE0F5FFF0C19F4E394FF24CA
:10079000F39487E08E1508F0BECF013430F0DB868D
:1007A000DD2011F581E08D871FC01B861D861C860C
:1007B00090E0DE0120E030E0F501E20FF31F139638
:1007C0008C91139780832F5F3F4F1196283031050E
:1007D00099F7892FDF91CF911F910F91FF90EF90A3
:1007E000DF90BF90AF9008958B818823F1F291E064
:1007F000E0CFD02EBECFFF920F931F938C01F62E29
:10080000862F60E01CD48F2D90E0FC01E75CFE4F4A
:10081000E491D801EC93825D9E4FFC016491E62F38
:10082000F0E0E85DFE4FE4911196EC93119712967B
:100830001C9212971B961C921B971D961C921D973B
:100840001C961C92F80187E090E012863197009781
:1008500011F00197FACF1F910F91FF900895C19861
:100860009FB990E031E123E13DB92DB99F5F983008
:10087000D9F73FB18FB980E021E193E12DB99DB95E
:100880008F5F8830D9F72FB1932F80E0C19A30E085
:10089000282B392BC90108952BB72F7B2BBFDFDF06
:1008A0002BB720642BBF089580E090E0D8DF8091C3
:1008B0003D01853009F052C080E090EBD0DF282F59
:1008C00080913F01882371F490913E01992351F06A
:1008D00080913F01E82FF0E0E151FF4F90838F5F5F
:1008E00080933F0180913F01E82FF0E0E151FF4FFD
:1008F00020838F5F80933F018091ED009091EE0007
:100900008227282F22952827022E269526952025F6
:10091000022E269520252770082E892F26950794CC
:100920002795902D822706942795902582279093CE
:10093000EE008093ED008091F10020913F0190E066
:10094000049630E0821793072CF080913F018734A2
:1009500008F46AC08DE092E882DF089580913D013D
:1009600087FF2EC0E091F10080913D018F5F809361
:100970003D018150ED5FE80FF0E0E151FF4FE08174
:100980008091ED009091EE008E27282F2295282748
:10099000022E269526952025022E269520252770A5
:1009A000082E892F269507942795902D8227069447
:1009B0002795902582279093EE008093ED002FC01D
:1009C00080913D018F5F80933D018150833019F10B
:1009D00084302CF4882399F0813001F516C08930D9
:1009E00019F08A30D9F402C0EDE219C0E0913E015D
:1009F0009091F1008EEF891B80933D0110C0809192
:100A0000ED009091EE00E82F0AC08091ED009091EA
:100A1000EE00E92F04C08DE092E821DFEAEA8E2F94
:100A200090E0805098441BDF089580913D0185300F
:100A300009F042C08091F10020913F0190E00496BE
:100A400030E08217930724F080913F018734A0F1B2
:100A500084E080933D018091F100833430F081E0A7
:100A600090E09093EE008093ED008091F00086FF7F
:100A700012C080913C01282F30E0C9018F71907025
:100A80004F9749F08091F00090E0822793278F7173
:100A90009070892B89F48091ED009091EE00892B64
:100AA00009F043C0E0913A01F0913B01309709F41D
:100AB0003CC080E0099545C080913D01843011F033
:100AC00080E008951092F1008091F10080933F0141
:100AD0008FEF9FEF9093EE008093ED0020913E0109
:100AE0002223D9F08227282F22952827022E269507
:100AF00026952025022E269520252770082E892F41
:100B0000269507942795902D822706942795902562
:100B100082279093EE008093ED0085E080933D0165
:100B20008DED92E89CDE80E008958FEF9FEFAFEFB0
:100B3000BFEF8093360190933701A0933801B093B3
:100B4000390181E0089580913D01853089F48091DB
:100B50003F01882369F480E090E09EDE90FD08C0AC
:100B60008DE092E899DE84E080933D0181E0089574
:100B700080E00895982F86FD05C0907E80913C010D
:100B80008F71980F9093F000E0913A01F0913B0142
:100B9000309711F081E009958FEF9FEF9093EE0071
:100BA0008093ED008091ED009091EE0020913E0148
:100BB0008227282F22952827022E26952695202544
:100BC000022E269520252770082E892F269507941A
:100BD0002795902D8227069427959025822790931C
:100BE000EE008093ED0086E080933D018DE392E876
:100BF00036DE0895282F12C0222381F095B72330C6
:100C000011F080E001C080E1977E892B85BF85B718
:100C1000806285BF889585B78F7D85BF80913D01B6
:100C2000843051F708951F93182F87FF03C08DE07C
:100C300092E80CC0992787FD9095956E2DDE85E092
:100C400092E82ADE112319F087E092E825DE84E09D
:100C500080933D011F9108951F93182F4093F10039
:100C600022EF30E0C90150E09CDA812F83DF1F9131
:100C70000895C19AB99A81E061E005D281E061E00E
:100C8000DED185E061E0DBD184E060E0D8D186E0B0
:100C900061E0D5D180E18DB982E060E0D0D182E021
:100CA00061E0F1D108951F93162F80933C0140938A
:100CB0003E01DFDF80E090E0D2DD85E092E8CFDD2D
:100CC00080E098EB02C080E090E0C9DD82E015D2C0
:100CD000892BC9F3812F90E064E0880F991F6A95F2
:100CE000E1F7876C9068BBDD80E496EAB8DD86E0CA
:100CF00096ECB5DD82EA94E9B2DD8CEA92ECAFDDE8
:100D000010913E01112339F083E89AECA8DD812F80
:100D100090E09E6C05C08BE89AECA1DD8DE29EEC24
:100D20009EDD83E894EC9BDD80E598E998DD87E71C
:100D30009CEC95DD80E090EE92DD80E098EC8FDD1C
:100D400089E490EC8CDD84E080933D0180913C014E
:100D500090E08F719070892B39F080E064E574E049
:100D600040E050E0FFD102C080E00DD280913C0114
:100D70001F910895982F83FF02C088E2982797FF5C
:100D800002C090E001C0906484B7877F84BFF8946C
:100D900081B5886181BD91BD7894089596B13798E9
:100DA00085B7877E806185BFF89485B7806285BFEF
:100DB00085B7846885BF85B78B77806885BF789451
:100DC000889585B78F7D85BF96B90895CF92DF92BC
:100DD000EF92FF921F93CF93DF937C01EC0158E0D9
:100DE000C52ED12C1DC01F5F193029F0969587950F
:100DF00080329105C0F710924001812FBBDFCEDF1A
:100E00008FEFB8DF960102C0220F331F1A95E2F769
:100E1000C21BD30B80914001882351F0C21BD30B1E
:100E2000C031D10510F461E004C0CE0110E0E0CF84
:100E300060E0209145013091460140914701509179
:100E40004801EC1AFD0AC701A0E0B0E0820F931F31
:100E5000A41FB51F8093450190934601A0934701BD
:100E6000B0934801862FDF91CF911F91FF90EF90B3
:100E7000DF90CF900895809140018F5F8093400173
:100E800008951F920F920FB60F9211242F933F9344
:100E90008F939F93AF93BF938091450190914601AB
:100EA000A0914701B091480130914901232F2A5F59
:100EB0002D3728F02D570396A11DB11D03C00296B2
:100EC000A11DB11D209349018093450190934601D6
:100ED000A0934701B0934801809141019091420154
:100EE000A0914301B09144010196A11DB11D8093D1
:100EF000410190934201A0934301B0934401BF91FB
:100F0000AF919F918F913F912F910F900FBE0F90B6
:100F10001F9018958FB7F8942091450130914601A4
:100F200040914701509148018FBFB901CA0108950E
:100F30009B01AC017FB7F8948091410190914201EF
:100F4000A0914301B091440162B708B600FE05C00C
:100F50006F3F19F00196A11DB11D7FBFBA2FA92FB8
:100F6000982F8827860F911DA11DB11D63E0880F62
:100F7000991FAA1FBB1F6A95D1F7BC012EC0FFB7EE
:100F8000F8948091410190914201A0914301B09168
:100F90004401E2B708B600FE05C0EF3F19F0019624
:100FA000A11DB11DFFBFBA2FA92F982F88278E0F23
:100FB000911DA11DB11DE3E0880F991FAA1FBB1F42
:100FC000EA95D1F7861B970B885E9340C0F22150BB
:100FD00030404040504068517C4F2115310541055B
:100FE000510569F60895019739F0019729F0880FA6
:100FF000991F01970197F1F70895789480B783605E
:1010000080BF83B7877F83BF83B7887F836083BFB9
:1010100089B7816089BF8EB5887F8EBD8FB58C7F83
:1010200081608FBD8EB5877E8EBD8EB5887F8360D3
:101030008EBD86B1887F866086B9379A0895482F1D
:1010400050E0CA01875C9E4FFC012491425D5E4FD7
:10105000FA0184918823B1F0E82FF0E0EE5DFE4FB5
:10106000E491F0E0662341F49FB7F89480812095E5
:10107000822380839FBF08959FB7F8948081822B3D
:1010800080839FBF0895282F482F50E0CA01875CB6
:101090009E4FFC013491425D5E4FFA019491992379
:1010A00059F1223019F480B78F7304C0233021F432
:1010B00080B78F7C80BF0AC0243019F48FB58F733E
:1010C00004C0253019F48FB58F7C8FBDE92FF0E077
:1010D000EB5DFE4FE491F0E0662341F49FB7F89496
:1010E00080813095832380839FBF08959FB7F894B4
:1010F0008081832B80839FBF0895282F482F50E045
:10110000CA01875C9E4FFC019491425D5E4FFA01DB
:101110003491332319F420E030E022C0223019F456
:1011200080B78F7304C0233021F480B78F7C80BFD9
:101130000AC0243019F48FB58F7304C0253019F418
:101140008FB58F7C8FBDE32FF0E0E85DFE4FE4911B
:10115000F0E0808120E030E0892311F021E030E0F0
:10116000C9010895882371F48FB7F89470934B01E7
:1011700060934A018FBF85B78C7F842B85BF8BB767
:1011800080648BBF0895882339F48BB78F7B8BBF26
:1011900010924B0110924A0108951F920F920FB6C0
:1011A0000F9211242F933F934F935F936F937F93ED
:1011B0008F939F93AF93BF93EF93FF9380914A01D7
:1011C00090914B01892B29F0E0914A01F0914B015C
:1011D0000995FF91EF91BF91AF919F918F917F9171
:1011E0006F915F914F913F912F910F900FBE0F9094
:1011F0001F9018950F931F93CF93DF938C01EB01F2
:1012000009C02196D801ED91FC910190F081E02D6B
:10121000C801099568816623A1F7DF91CF911F91DD
:101220000F910895EF92FF920F931F93CF93DF9347
:101230008C017B01EA010CC0D7016D917D01D801C1
:10124000ED91FC910190F081E02DC8010995219765
:10125000209791F7DF91CF911F910F91FF90EF9021
:101260000895DC01ED91FC910280F381E02D099558
:1012700008952F923F924F925F926F927F928F923A
:101280009F92AF92BF92CF92DF92EF92FF920F9315
:101290001F93DF93CF93CDB7DEB7A0970FB6F89427
:1012A000DEBF0FBECDBF1C016A017B014115510598
:1012B0006105710541F440E350E060E070E020E03A
:1012C00030E08CD053C0882499245401422E5524F8
:1012D0006624772401E010E00C0F1D1F080D191D76
:1012E000C701B601A30192013ED1F80160830894C1
:1012F000811C911CA11CB11CC701B601A301920164
:1013000032D1C901DA016C017D01C114D104E104BB
:10131000F10401F781E0E82EF12CEC0EFD1EE80C43
:10132000F91C3E010894611C711CD501C401019790
:10133000A109B1096C01C818D90815C0F601EE0D54
:10134000FF1D40814A3010F4405D01C0495C5527C3
:1013500047FD5095652F752FC10120E030E03ED04C
:101360000894E108F1086E147F0441F7A0960FB6C7
:10137000F894DEBF0FBECDBFCF91DF911F910F91CB
:10138000FF90EF90DF90CF90BF90AF909F908F90A5
:101390007F906F905F904F903F902F900895DC0169
:1013A0002115310541F4ED91FC910190F081E02D82
:1013B000642F099508955DDF0895EF92FF920F93D2
:1013C0001F939A01E62EFF2400E010E0B801A70168
:1013D000E6DF1F910F91FF90EF900895EF92FF923B
:1013E0000F931F93CF93DF93EC017A018B012115AB
:1013F000310541F4E881F9810190F081E02D642FFD
:10140000099519C02A303105A9F477FF0FC04DE2C4
:1014100050E060E070E020E030E0E0DF1095009503
:10142000F094E094E11CF11C011D111DCE01B801E6
:10143000A7012AE01EDFDF91CF911F910F91FF904E
:10144000EF9008950F931F938C014DE050E060E002
:1014500070E020E030E0C2DFC8014AE050E060E028
:1014600070E020E030E0BADF82E090E01F910F9161
:1014700008950F931F938C01F4DEC801E3DF1F91E1
:101480000F9108950895089580E090E008958FEFFA
:101490009FEF08958FEF9FEF08950895FC01A281BB
:1014A000B381ED91FC9111970280F381E02DCD0184
:1014B000099581E090E0089520E531E0FC01338357
:1014C0002283C901DFDF0895FC018EEA90E0918359
:1014D0008083CF01F1DF089586EA90E09093510177
:1014E000809350018CE491E0EFDF0895B89AC09AA0
:1014F0000895862F880F8E7162956F70606122E06B
:1015000095E059E0F89407C00000000000000000DA
:10151000000000000000879510F0C09802C0C09A3B
:101520000000579510F40000000033E049E54A95AB
:10153000F1F700003A95D1F700009A9529F70000DD
:101540002A9521F095E0862F54E0E5CF7894089510
:1015500080EC90E0909353018093520108954DDD0B
:1015600056D734D7FECFA1E21A2EAA1BBB1BFD0112
:101570000DC0AA1FBB1FEE1FFF1FA217B307E40772
:10158000F50720F0A21BB30BE40BF50B661F771FCA
:10159000881F991F1A9469F76095709580959095AA
:1015A0009B01AC01BD01CF010895EE0FFF1F059017
:0A15B000F491E02D0994F894FFCFA8
:1015BA004E6F206D6F726520616464726573736526
:1015CA00732E00523D002000435243206973206E5F
:1015DA006F742076616C6964210054656D702074A3
:1015EA0072616E736D697465722073746172747559
:1015FA00700000000000420A430A000000004E0A80
:10160A00FA081209440A4A0A470A4D0A0000000069
:04161A00760A790AC9
:00000001FF
