:1000000027C041C040C03FC03EC03DC03CC03BC017
:100010003AC039C038C050C036C035C034C033C013
:1000200032C0003A37003B38003936003240020215
:1000300002010101010101010101020480402010BF
:100040000804020100000102030400000000000097
:1000500011241FBECFE5D2E0DEBFCDBF10E0A0E689
:10006000B0E0ECE0F3E002C005900D92A236B107DB
:10007000D9F710E0A2E6B0E001C01D92AB36B1079F
:10008000E1F73ED141C1BCCF8091600061E0FED07C
:1000900068EE73E080E090E058D08091600060E00E
:1000A000F5D068EE73E080E090E04FD00895809145
:1000B000600061E0C7D008951F920F920FB60F92B3
:1000C00011242F933F938F939F93AF93BF9380916E
:1000D000660090916700A0916800B091690030912E
:1000E0006A00232F2A5F2D3728F02D570396A11D74
:1000F000B11D03C00296A11DB11D20936A0080931B
:10010000660090936700A0936800B09369008091A7
:10011000620090916300A0916400B0916500019627
:10012000A11DB11D8093620090936300A0936400B1
:10013000B0936500BF91AF919F918F913F912F91A7
:100140000F900FBE0F901F9018959B01AC017FB7C9
:10015000F8948091620090916300A0916400B09146
:10016000650062B708B600FE05C06F3F19F0019642
:10017000A11DB11D7FBFBA2FA92F982F8827860FE9
:10018000911DA11DB11D63E0880F991FAA1FBB1F00
:100190006A95D1F7BC012EC0FFB7F8948091620038
:1001A00090916300A0916400B0916500E2B708B639
:1001B00000FE05C0EF3F19F00196A11DB11DFFBF64
:1001C000BA2FA92F982F88278E0F911DA11DB11D21
:1001D000E3E0880F991FAA1FBB1FEA95D1F7861B82
:1001E000970B885E9340C0F2215030404040504011
:1001F00068517C4F211531054105510569F6089577
:10020000789480B7836080BF83B7877F83BF83B7CD
:10021000887F836083BF89B7816089BF8EB5887FFF
:100220008EBD8FB58C7F81608FBD8EB5877E8EBD74
:100230008EB5887F83608EBD86B1887F866086B9E3
:10024000379A0895482F50E0CA01875C9F4FFC0100
:100250002491425D5F4FFA0184918823B1F0E82F29
:10026000F0E0EE5DFF4FE491F0E0662341F49FB7CC
:10027000F89480812095822380839FBF08959FB743
:10028000F8948081822B80839FBF0895282F482F68
:1002900050E0CA01875C9F4FFC013491425D5F4F83
:1002A000FA019491992359F1223019F480B78F7390
:1002B00004C0233021F480B78F7C80BF0AC0243073
:1002C00019F48FB58F7304C0253019F48FB58F7C66
:1002D0008FBDE92FF0E0EB5DFF4FE491F0E0662386
:1002E00041F49FB7F89480813095832380839FBF2A
:1002F00008959FB7F8948081832B80839FBF0895D2
:0C0300007FDFD5DEC1DEFECFF894FFCF1A
:02030C000D00E2
:00000001FF
